:020000040800F2
:1000000000800120BD00000800000000000000008A
:1000100000000000000000000000000000000000E0
:1000200000000000000000000000000000000000D0
:100030000000000000000000000000007500000843
:100040000A4BA3FB00239B09013BB3F1807F0CD239
:100050004FF0E022064853614FF0F00C00210723D7
:1000600080F823C0916113617047FEE7D34D6210A1
:1000700000ED00E0024A136801331360704700BFCF
:1000800004000020014B1868704700BF04000020E6
:10009000034A116813685B1A8342FBD3704700BFA1
:1000A00004000020034B1B68181A884234BF00204C
:1000B0000120704704000020FEE700BF124A1349E8
:1000C0008A4208B50CD20139891A114B21F003017B
:1000D0000431194453F8040B42F8040B8B42F9D154
:1000E0000C4B0D4A93420AD2013AD21A22F0030273
:1000F00004321A44002143F8041B9342FBD100F060
:100100000DF800F045F8FEE7000000200400002094
:10011000D40100080400002008000020704700BF40
:10012000164A936803F00C03042B25D0082B0AD041
:10013000134B124A134892681349C2F30312825CAC
:10014000D3400B6070475368516813F4800F5368B5
:1001500014BF0E4A0A4AC3F3881301F03F01B2FBF1
:10016000F1F202FB03F3054A5268C2F30142013285
:100170005200B3FBF2F3DCE7044BDAE7003802404D
:100180000024F400BC0100080000002040787D013C
:1001900010B5FFF7C3FFFFF7C3FF0748FFF750FF96
:1001A000FFF770FF04464FF4FA712046FFF77AFF1D
:1001B0000028F8D0F4E700BF0024F400000000009D
:1001C0000000000001020304060708090000000007
:0401D0000102030421
:0401D4000024F4000F
:04000005080000BD32
:00000001FF
